{
  "abi": [
    {
      "type": "constructor",
      "inputs": [
        {
          "name": "_avsDirectory",
          "type": "address",
          "internalType": "contract IAVSDirectory"
        },
        {
          "name": "_registryCoordinator",
          "type": "address",
          "internalType": "contract IRegistryCoordinator"
        },
        {
          "name": "_stakeRegistry",
          "type": "address",
          "internalType": "contract IStakeRegistry"
        },
        {
          "name": "_axonAVSTaskManager",
          "type": "address",
          "internalType": "contract IAxonAVSTaskManager"
        }
      ],
      "stateMutability": "nonpayable"
    },
    {
      "type": "function",
      "name": "avsDirectory",
      "inputs": [],
      "outputs": [
        {
          "name": "",
          "type": "address",
          "internalType": "address"
        }
      ],
      "stateMutability": "view"
    },
    {
      "type": "function",
      "name": "axonAVSTaskManager",
      "inputs": [],
      "outputs": [
        {
          "name": "",
          "type": "address",
          "internalType": "contract IAxonAVSTaskManager"
        }
      ],
      "stateMutability": "view"
    },
    {
      "type": "function",
      "name": "deregisterOperatorFromAVS",
      "inputs": [
        {
          "name": "operator",
          "type": "address",
          "internalType": "address"
        }
      ],
      "outputs": [],
      "stateMutability": "nonpayable"
    },
    {
      "type": "function",
      "name": "getOperatorRestakedStrategies",
      "inputs": [
        {
          "name": "operator",
          "type": "address",
          "internalType": "address"
        }
      ],
      "outputs": [
        {
          "name": "",
          "type": "address[]",
          "internalType": "address[]"
        }
      ],
      "stateMutability": "view"
    },
    {
      "type": "function",
      "name": "getRestakeableStrategies",
      "inputs": [],
      "outputs": [
        {
          "name": "",
          "type": "address[]",
          "internalType": "address[]"
        }
      ],
      "stateMutability": "view"
    },
    {
      "type": "function",
      "name": "initialize",
      "inputs": [
        {
          "name": "initialOwner",
          "type": "address",
          "internalType": "address"
        }
      ],
      "outputs": [],
      "stateMutability": "nonpayable"
    },
    {
      "type": "function",
      "name": "owner",
      "inputs": [],
      "outputs": [
        {
          "name": "",
          "type": "address",
          "internalType": "address"
        }
      ],
      "stateMutability": "view"
    },
    {
      "type": "function",
      "name": "payForRange",
      "inputs": [
        {
          "name": "rangePayments",
          "type": "tuple[]",
          "internalType": "struct IPaymentCoordinator.RangePayment[]",
          "components": [
            {
              "name": "strategiesAndMultipliers",
              "type": "tuple[]",
              "internalType": "struct IPaymentCoordinator.StrategyAndMultiplier[]",
              "components": [
                {
                  "name": "strategy",
                  "type": "address",
                  "internalType": "contract IStrategy"
                },
                {
                  "name": "multiplier",
                  "type": "uint96",
                  "internalType": "uint96"
                }
              ]
            },
            {
              "name": "token",
              "type": "address",
              "internalType": "contract IERC20"
            },
            {
              "name": "amount",
              "type": "uint256",
              "internalType": "uint256"
            },
            {
              "name": "startTimestamp",
              "type": "uint32",
              "internalType": "uint32"
            },
            {
              "name": "duration",
              "type": "uint32",
              "internalType": "uint32"
            }
          ]
        }
      ],
      "outputs": [],
      "stateMutability": "nonpayable"
    },
    {
      "type": "function",
      "name": "registerOperatorToAVS",
      "inputs": [
        {
          "name": "operator",
          "type": "address",
          "internalType": "address"
        },
        {
          "name": "operatorSignature",
          "type": "tuple",
          "internalType": "struct ISignatureUtils.SignatureWithSaltAndExpiry",
          "components": [
            {
              "name": "signature",
              "type": "bytes",
              "internalType": "bytes"
            },
            {
              "name": "salt",
              "type": "bytes32",
              "internalType": "bytes32"
            },
            {
              "name": "expiry",
              "type": "uint256",
              "internalType": "uint256"
            }
          ]
        }
      ],
      "outputs": [],
      "stateMutability": "nonpayable"
    },
    {
      "type": "function",
      "name": "renounceOwnership",
      "inputs": [],
      "outputs": [],
      "stateMutability": "nonpayable"
    },
    {
      "type": "function",
      "name": "transferOwnership",
      "inputs": [
        {
          "name": "newOwner",
          "type": "address",
          "internalType": "address"
        }
      ],
      "outputs": [],
      "stateMutability": "nonpayable"
    },
    {
      "type": "function",
      "name": "updateAVSMetadataURI",
      "inputs": [
        {
          "name": "_metadataURI",
          "type": "string",
          "internalType": "string"
        }
      ],
      "outputs": [],
      "stateMutability": "nonpayable"
    },
    {
      "type": "event",
      "name": "Initialized",
      "inputs": [
        {
          "name": "version",
          "type": "uint8",
          "indexed": false,
          "internalType": "uint8"
        }
      ],
      "anonymous": false
    },
    {
      "type": "event",
      "name": "OwnershipTransferred",
      "inputs": [
        {
          "name": "previousOwner",
          "type": "address",
          "indexed": true,
          "internalType": "address"
        },
        {
          "name": "newOwner",
          "type": "address",
          "indexed": true,
          "internalType": "address"
        }
      ],
      "anonymous": false
    }
  ],
  "bytecode": {
    "object": "0x6101206040523480156200001257600080fd5b5060405162001c2838038062001c2883398101604081905262000035916200015a565b6001600160a01b03808516608052600060a081905281851660c05290831660e05284908484620000646200007f565b505050506001600160a01b03166101005250620001c2915050565b600054610100900460ff1615620000ec5760405162461bcd60e51b815260206004820152602760248201527f496e697469616c697a61626c653a20636f6e747261637420697320696e697469604482015266616c697a696e6760c81b606482015260840160405180910390fd5b60005460ff90811610156200013f576000805460ff191660ff9081179091556040519081527f7f26b83ff96e1f2b6a682f133852f6798a09c465da95921460cefb38474024989060200160405180910390a15b565b6001600160a01b03811681146200015757600080fd5b50565b600080600080608085870312156200017157600080fd5b84516200017e8162000141565b6020860151909450620001918162000141565b6040860151909350620001a48162000141565b6060860151909250620001b78162000141565b939692955090935050565b60805160a05160c05160e051610100516119b96200026f600039600061018801526000818161065a015281816107b60152818161084d01528181610cd901528181610e5d0152610efc01526000818161048501528181610514015281816105940152818161094f015281816109ee01528181610c170152610db801526000818161031501526103f301526000818160f9015281816109ac01528181610a4a0152610ac901526119b96000f3fe608060405234801561001057600080fd5b50600436106100b45760003560e01c8063a364f4da11610071578063a364f4da1461015d578063a98fb35514610170578063bcfb0c8814610183578063c4d66de8146101aa578063e481af9d146101bd578063f2fde38b146101c557600080fd5b80631b445516146100b957806333cfb7b7146100ce5780636b3aa72e146100f7578063715018a6146101315780638da5cb5b146101395780639926ee7d1461014a575b600080fd5b6100cc6100c736600461125f565b6101d8565b005b6100e16100dc3660046112e9565b610460565b6040516100ee919061130d565b60405180910390f35b7f00000000000000000000000000000000000000000000000000000000000000005b6040516001600160a01b0390911681526020016100ee565b6100cc610930565b6033546001600160a01b0316610119565b6100cc61015836600461140f565b610944565b6100cc61016b3660046112e9565b6109e3565b6100cc61017e3660046114ba565b610aaa565b6101197f000000000000000000000000000000000000000000000000000000000000000081565b6100cc6101b83660046112e9565b610afe565b6100e1610c11565b6100cc6101d33660046112e9565b610fdb565b6101e0611054565b60005b818110156103db578282828181106101fd576101fd61150b565b905060200281019061020f9190611521565b6102209060408101906020016112e9565b6001600160a01b03166323b872dd33308686868181106102425761024261150b565b90506020028101906102549190611521565b604080516001600160e01b031960e087901b1681526001600160a01b039485166004820152939092166024840152013560448201526064016020604051808303816000875af11580156102ab573d6000803e3d6000fd5b505050506040513d601f19601f820116820180604052508101906102cf9190611551565b508282828181106102e2576102e261150b565b90506020028101906102f49190611521565b6103059060408101906020016112e9565b6001600160a01b031663095ea7b37f00000000000000000000000000000000000000000000000000000000000000008585858181106103465761034661150b565b90506020028101906103589190611521565b604080516001600160e01b031960e086901b1681526001600160a01b039093166004840152013560248201526044016020604051808303816000875af11580156103a6573d6000803e3d6000fd5b505050506040513d601f19601f820116820180604052508101906103ca9190611551565b506103d481611589565b90506101e3565b50604051630da22a8b60e11b81526001600160a01b037f00000000000000000000000000000000000000000000000000000000000000001690631b4455169061042a908590859060040161163d565b600060405180830381600087803b15801561044457600080fd5b505af1158015610458573d6000803e3d6000fd5b505050505050565b6040516309aa152760e11b81526001600160a01b0382811660048301526060916000917f000000000000000000000000000000000000000000000000000000000000000016906313542a4e90602401602060405180830381865afa1580156104cc573d6000803e3d6000fd5b505050506040513d601f19601f820116820180604052508101906104f0919061174b565b60405163871ef04960e01b8152600481018290529091506000906001600160a01b037f0000000000000000000000000000000000000000000000000000000000000000169063871ef04990602401602060405180830381865afa15801561055b573d6000803e3d6000fd5b505050506040513d601f19601f8201168201806040525081019061057f9190611764565b90506001600160c01b038116158061061957507f00000000000000000000000000000000000000000000000000000000000000006001600160a01b0316639aa1653d6040518163ffffffff1660e01b8152600401602060405180830381865afa1580156105f0573d6000803e3d6000fd5b505050506040513d601f19601f82011682018060405250810190610614919061178d565b60ff16155b1561063557505060408051600081526020810190915292915050565b6000610649826001600160c01b03166110ae565b90506000805b825181101561071f577f00000000000000000000000000000000000000000000000000000000000000006001600160a01b0316633ca5a5f58483815181106106995761069961150b565b01602001516040516001600160e01b031960e084901b16815260f89190911c6004820152602401602060405180830381865afa1580156106dd573d6000803e3d6000fd5b505050506040513d601f19601f82011682018060405250810190610701919061174b565b61070b90836117b0565b91508061071781611589565b91505061064f565b5060008167ffffffffffffffff81111561073b5761073b61135a565b604051908082528060200260200182016040528015610764578160200160208202803683370190505b5090506000805b84518110156109235760008582815181106107885761078861150b565b0160200151604051633ca5a5f560e01b815260f89190911c6004820181905291506000906001600160a01b037f00000000000000000000000000000000000000000000000000000000000000001690633ca5a5f590602401602060405180830381865afa1580156107fd573d6000803e3d6000fd5b505050506040513d601f19601f82011682018060405250810190610821919061174b565b905060005b8181101561090d576040516356e4026d60e11b815260ff84166004820152602481018290527f00000000000000000000000000000000000000000000000000000000000000006001600160a01b03169063adc804da906044016040805180830381865afa15801561089b573d6000803e3d6000fd5b505050506040513d601f19601f820116820180604052508101906108bf91906117c8565b600001518686815181106108d5576108d561150b565b6001600160a01b0390921660209283029190910190910152846108f781611589565b955050808061090590611589565b915050610826565b505050808061091b90611589565b91505061076b565b5090979650505050505050565b610938611054565b6109426000611171565b565b336001600160a01b037f000000000000000000000000000000000000000000000000000000000000000016146109955760405162461bcd60e51b815260040161098c90611827565b60405180910390fd5b604051639926ee7d60e01b81526001600160a01b037f00000000000000000000000000000000000000000000000000000000000000001690639926ee7d9061042a90859085906004016118ec565b336001600160a01b037f00000000000000000000000000000000000000000000000000000000000000001614610a2b5760405162461bcd60e51b815260040161098c90611827565b6040516351b27a6d60e11b81526001600160a01b0382811660048301527f0000000000000000000000000000000000000000000000000000000000000000169063a364f4da906024015b600060405180830381600087803b158015610a8f57600080fd5b505af1158015610aa3573d6000803e3d6000fd5b5050505050565b610ab2611054565b60405163a98fb35560e01b81526001600160a01b037f0000000000000000000000000000000000000000000000000000000000000000169063a98fb35590610a75908490600401611937565b600054610100900460ff1615808015610b1e5750600054600160ff909116105b80610b385750303b158015610b38575060005460ff166001145b610b9b5760405162461bcd60e51b815260206004820152602e60248201527f496e697469616c697a61626c653a20636f6e747261637420697320616c72656160448201526d191e481a5b9a5d1a585b1a5e995960921b606482015260840161098c565b6000805460ff191660011790558015610bbe576000805461ff0019166101001790555b610bc7826111c3565b8015610c0d576000805461ff0019169055604051600181527f7f26b83ff96e1f2b6a682f133852f6798a09c465da95921460cefb38474024989060200160405180910390a15b5050565b606060007f00000000000000000000000000000000000000000000000000000000000000006001600160a01b0316639aa1653d6040518163ffffffff1660e01b8152600401602060405180830381865afa158015610c73573d6000803e3d6000fd5b505050506040513d601f19601f82011682018060405250810190610c97919061178d565b60ff16905080610cb557505060408051600081526020810190915290565b6000805b82811015610d6a57604051633ca5a5f560e01b815260ff821660048201527f00000000000000000000000000000000000000000000000000000000000000006001600160a01b031690633ca5a5f590602401602060405180830381865afa158015610d28573d6000803e3d6000fd5b505050506040513d601f19601f82011682018060405250810190610d4c919061174b565b610d5690836117b0565b915080610d6281611589565b915050610cb9565b5060008167ffffffffffffffff811115610d8657610d8661135a565b604051908082528060200260200182016040528015610daf578160200160208202803683370190505b5090506000805b7f00000000000000000000000000000000000000000000000000000000000000006001600160a01b0316639aa1653d6040518163ffffffff1660e01b8152600401602060405180830381865afa158015610e14573d6000803e3d6000fd5b505050506040513d601f19601f82011682018060405250810190610e38919061178d565b60ff16811015610fd157604051633ca5a5f560e01b815260ff821660048201526000907f00000000000000000000000000000000000000000000000000000000000000006001600160a01b031690633ca5a5f590602401602060405180830381865afa158015610eac573d6000803e3d6000fd5b505050506040513d601f19601f82011682018060405250810190610ed0919061174b565b905060005b81811015610fbc576040516356e4026d60e11b815260ff84166004820152602481018290527f00000000000000000000000000000000000000000000000000000000000000006001600160a01b03169063adc804da906044016040805180830381865afa158015610f4a573d6000803e3d6000fd5b505050506040513d601f19601f82011682018060405250810190610f6e91906117c8565b60000151858581518110610f8457610f8461150b565b6001600160a01b039092166020928302919091019091015283610fa681611589565b9450508080610fb490611589565b915050610ed5565b50508080610fc990611589565b915050610db6565b5090949350505050565b610fe3611054565b6001600160a01b0381166110485760405162461bcd60e51b815260206004820152602660248201527f4f776e61626c653a206e6577206f776e657220697320746865207a65726f206160448201526564647265737360d01b606482015260840161098c565b61105181611171565b50565b6033546001600160a01b031633146109425760405162461bcd60e51b815260206004820181905260248201527f4f776e61626c653a2063616c6c6572206973206e6f7420746865206f776e6572604482015260640161098c565b60606000806110bc8461122e565b61ffff1667ffffffffffffffff8111156110d8576110d861135a565b6040519080825280601f01601f191660200182016040528015611102576020820181803683370190505b5090506000805b82518210801561111a575061010081105b15610fd1576001811b935085841615611161578060f81b8383815181106111435761114361150b565b60200101906001600160f81b031916908160001a9053508160010191505b61116a81611589565b9050611109565b603380546001600160a01b038381166001600160a01b0319831681179093556040519116919082907f8be0079c531659141344cd1fd0a4f28419497f9722a3daafe3b4186f6b6457e090600090a35050565b600054610100900460ff166110485760405162461bcd60e51b815260206004820152602b60248201527f496e697469616c697a61626c653a20636f6e7472616374206973206e6f74206960448201526a6e697469616c697a696e6760a81b606482015260840161098c565b6000805b82156112595761124360018461194a565b909216918061125181611961565b915050611232565b92915050565b6000806020838503121561127257600080fd5b823567ffffffffffffffff8082111561128a57600080fd5b818501915085601f83011261129e57600080fd5b8135818111156112ad57600080fd5b8660208260051b85010111156112c257600080fd5b60209290920196919550909350505050565b6001600160a01b038116811461105157600080fd5b6000602082840312156112fb57600080fd5b8135611306816112d4565b9392505050565b6020808252825182820181905260009190848201906040850190845b8181101561134e5783516001600160a01b031683529284019291840191600101611329565b50909695505050505050565b634e487b7160e01b600052604160045260246000fd5b6040516060810167ffffffffffffffff811182821017156113935761139361135a565b60405290565b600067ffffffffffffffff808411156113b4576113b461135a565b604051601f8501601f19908116603f011681019082821181831017156113dc576113dc61135a565b816040528093508581528686860111156113f557600080fd5b858560208301376000602087830101525050509392505050565b6000806040838503121561142257600080fd5b823561142d816112d4565b9150602083013567ffffffffffffffff8082111561144a57600080fd5b908401906060828703121561145e57600080fd5b611466611370565b82358281111561147557600080fd5b83019150601f8201871361148857600080fd5b61149787833560208501611399565b815260208301356020820152604083013560408201528093505050509250929050565b6000602082840312156114cc57600080fd5b813567ffffffffffffffff8111156114e357600080fd5b8201601f810184136114f457600080fd5b61150384823560208401611399565b949350505050565b634e487b7160e01b600052603260045260246000fd5b60008235609e1983360301811261153757600080fd5b9190910192915050565b803561154c816112d4565b919050565b60006020828403121561156357600080fd5b8151801515811461130657600080fd5b634e487b7160e01b600052601160045260246000fd5b600060001982141561159d5761159d611573565b5060010190565b6bffffffffffffffffffffffff8116811461105157600080fd5b8183526000602080850194508260005b8581101561161e5781356115e1816112d4565b6001600160a01b03168752818301356115f9816115a4565b6bffffffffffffffffffffffff168784015260409687019691909101906001016115ce565b509495945050505050565b803563ffffffff8116811461154c57600080fd5b60208082528181018390526000906040808401600586901b8501820187855b8881101561173d57878303603f190184528135368b9003609e1901811261168257600080fd5b8a0160a0813536839003601e1901811261169b57600080fd5b8201803567ffffffffffffffff8111156116b457600080fd5b8060061b36038413156116c657600080fd5b8287526116d8838801828c85016115be565b925050506116e7888301611541565b6001600160a01b03168886015281870135878601526060611709818401611629565b63ffffffff16908601526080611720838201611629565b63ffffffff1695019490945250928501929085019060010161165c565b509098975050505050505050565b60006020828403121561175d57600080fd5b5051919050565b60006020828403121561177657600080fd5b81516001600160c01b038116811461130657600080fd5b60006020828403121561179f57600080fd5b815160ff8116811461130657600080fd5b600082198211156117c3576117c3611573565b500190565b6000604082840312156117da57600080fd5b6040516040810181811067ffffffffffffffff821117156117fd576117fd61135a565b604052825161180b816112d4565b8152602083015161181b816115a4565b60208201529392505050565b60208082526052908201527f536572766963654d616e61676572426173652e6f6e6c7952656769737472794360408201527f6f6f7264696e61746f723a2063616c6c6572206973206e6f742074686520726560608201527133b4b9ba393c9031b7b7b93234b730ba37b960711b608082015260a00190565b6000815180845260005b818110156118c5576020818501810151868301820152016118a9565b818111156118d7576000602083870101525b50601f01601f19169290920160200192915050565b60018060a01b038316815260406020820152600082516060604084015261191660a084018261189f565b90506020840151606084015260408401516080840152809150509392505050565b602081526000611306602083018461189f565b60008282101561195c5761195c611573565b500390565b600061ffff8083168181141561197957611979611573565b600101939250505056fea2646970667358221220495a5a87d55af5289d8ef062ee1f18113d9bc9cc240f29f0c0bb28ef7c0e2ab664736f6c634300080c0033",
    "linkReferences": {}
  },
  "methodIdentifiers": {
    "avsDirectory()": "6b3aa72e",
    "axonAVSTaskManager()": "bcfb0c88",
    "deregisterOperatorFromAVS(address)": "a364f4da",
    "getOperatorRestakedStrategies(address)": "33cfb7b7",
    "getRestakeableStrategies()": "e481af9d",
    "initialize(address)": "c4d66de8",
    "owner()": "8da5cb5b",
    "payForRange(((address,uint96)[],address,uint256,uint32,uint32)[])": "1b445516",
    "registerOperatorToAVS(address,(bytes,bytes32,uint256))": "9926ee7d",
    "renounceOwnership()": "715018a6",
    "transferOwnership(address)": "f2fde38b",
    "updateAVSMetadataURI(string)": "a98fb355"
  },
  "id": 113
}