{
  "abi": [
    {
      "type": "constructor",
      "inputs": [
        {
          "name": "_registryCoordinator",
          "type": "address",
          "internalType": "contract IRegistryCoordinator"
        },
        {
          "name": "_taskResponseWindowBlock",
          "type": "uint32",
          "internalType": "uint32"
        }
      ],
      "stateMutability": "nonpayable"
    },
    {
      "type": "function",
      "name": "TASK_RESPONSE_WINDOW_BLOCK",
      "inputs": [],
      "outputs": [
        {
          "name": "",
          "type": "uint32",
          "internalType": "uint32"
        }
      ],
      "stateMutability": "view"
    },
    {
      "type": "function",
      "name": "aggregator",
      "inputs": [],
      "outputs": [
        {
          "name": "",
          "type": "address",
          "internalType": "address"
        }
      ],
      "stateMutability": "view"
    },
    {
      "type": "function",
      "name": "allProofs",
      "inputs": [
        {
          "name": "",
          "type": "uint32",
          "internalType": "uint32"
        }
      ],
      "outputs": [
        {
          "name": "",
          "type": "bytes",
          "internalType": "bytes"
        }
      ],
      "stateMutability": "view"
    },
    {
      "type": "function",
      "name": "allTaskHashes",
      "inputs": [
        {
          "name": "",
          "type": "uint32",
          "internalType": "uint32"
        }
      ],
      "outputs": [
        {
          "name": "",
          "type": "bytes32",
          "internalType": "bytes32"
        }
      ],
      "stateMutability": "view"
    },
    {
      "type": "function",
      "name": "allTaskResponses",
      "inputs": [
        {
          "name": "",
          "type": "uint32",
          "internalType": "uint32"
        }
      ],
      "outputs": [
        {
          "name": "",
          "type": "bytes32",
          "internalType": "bytes32"
        }
      ],
      "stateMutability": "view"
    },
    {
      "type": "function",
      "name": "blsApkRegistry",
      "inputs": [],
      "outputs": [
        {
          "name": "",
          "type": "address",
          "internalType": "contract IBLSApkRegistry"
        }
      ],
      "stateMutability": "view"
    },
    {
      "type": "function",
      "name": "checkSignatures",
      "inputs": [
        {
          "name": "msgHash",
          "type": "bytes32",
          "internalType": "bytes32"
        },
        {
          "name": "quorumNumbers",
          "type": "bytes",
          "internalType": "bytes"
        },
        {
          "name": "referenceBlockNumber",
          "type": "uint32",
          "internalType": "uint32"
        },
        {
          "name": "params",
          "type": "tuple",
          "internalType": "struct IBLSSignatureChecker.NonSignerStakesAndSignature",
          "components": [
            {
              "name": "nonSignerQuorumBitmapIndices",
              "type": "uint32[]",
              "internalType": "uint32[]"
            },
            {
              "name": "nonSignerPubkeys",
              "type": "tuple[]",
              "internalType": "struct BN254.G1Point[]",
              "components": [
                {
                  "name": "X",
                  "type": "uint256",
                  "internalType": "uint256"
                },
                {
                  "name": "Y",
                  "type": "uint256",
                  "internalType": "uint256"
                }
              ]
            },
            {
              "name": "quorumApks",
              "type": "tuple[]",
              "internalType": "struct BN254.G1Point[]",
              "components": [
                {
                  "name": "X",
                  "type": "uint256",
                  "internalType": "uint256"
                },
                {
                  "name": "Y",
                  "type": "uint256",
                  "internalType": "uint256"
                }
              ]
            },
            {
              "name": "apkG2",
              "type": "tuple",
              "internalType": "struct BN254.G2Point",
              "components": [
                {
                  "name": "X",
                  "type": "uint256[2]",
                  "internalType": "uint256[2]"
                },
                {
                  "name": "Y",
                  "type": "uint256[2]",
                  "internalType": "uint256[2]"
                }
              ]
            },
            {
              "name": "sigma",
              "type": "tuple",
              "internalType": "struct BN254.G1Point",
              "components": [
                {
                  "name": "X",
                  "type": "uint256",
                  "internalType": "uint256"
                },
                {
                  "name": "Y",
                  "type": "uint256",
                  "internalType": "uint256"
                }
              ]
            },
            {
              "name": "quorumApkIndices",
              "type": "uint32[]",
              "internalType": "uint32[]"
            },
            {
              "name": "totalStakeIndices",
              "type": "uint32[]",
              "internalType": "uint32[]"
            },
            {
              "name": "nonSignerStakeIndices",
              "type": "uint32[][]",
              "internalType": "uint32[][]"
            }
          ]
        }
      ],
      "outputs": [
        {
          "name": "",
          "type": "tuple",
          "internalType": "struct IBLSSignatureChecker.QuorumStakeTotals",
          "components": [
            {
              "name": "signedStakeForQuorum",
              "type": "uint96[]",
              "internalType": "uint96[]"
            },
            {
              "name": "totalStakeForQuorum",
              "type": "uint96[]",
              "internalType": "uint96[]"
            }
          ]
        },
        {
          "name": "",
          "type": "bytes32",
          "internalType": "bytes32"
        }
      ],
      "stateMutability": "view"
    },
    {
      "type": "function",
      "name": "createNewTask",
      "inputs": [
        {
          "name": "proof",
          "type": "bytes",
          "internalType": "bytes"
        },
        {
          "name": "quorumThresholdPercentage",
          "type": "uint32",
          "internalType": "uint32"
        },
        {
          "name": "quorumNumbers",
          "type": "bytes",
          "internalType": "bytes"
        }
      ],
      "outputs": [],
      "stateMutability": "nonpayable"
    },
    {
      "type": "function",
      "name": "delegation",
      "inputs": [],
      "outputs": [
        {
          "name": "",
          "type": "address",
          "internalType": "contract IDelegationManager"
        }
      ],
      "stateMutability": "view"
    },
    {
      "type": "function",
      "name": "generator",
      "inputs": [],
      "outputs": [
        {
          "name": "",
          "type": "address",
          "internalType": "address"
        }
      ],
      "stateMutability": "view"
    },
    {
      "type": "function",
      "name": "getBatchOperatorFromId",
      "inputs": [
        {
          "name": "registryCoordinator",
          "type": "address",
          "internalType": "contract IRegistryCoordinator"
        },
        {
          "name": "operatorIds",
          "type": "bytes32[]",
          "internalType": "bytes32[]"
        }
      ],
      "outputs": [
        {
          "name": "operators",
          "type": "address[]",
          "internalType": "address[]"
        }
      ],
      "stateMutability": "view"
    },
    {
      "type": "function",
      "name": "getBatchOperatorId",
      "inputs": [
        {
          "name": "registryCoordinator",
          "type": "address",
          "internalType": "contract IRegistryCoordinator"
        },
        {
          "name": "operators",
          "type": "address[]",
          "internalType": "address[]"
        }
      ],
      "outputs": [
        {
          "name": "operatorIds",
          "type": "bytes32[]",
          "internalType": "bytes32[]"
        }
      ],
      "stateMutability": "view"
    },
    {
      "type": "function",
      "name": "getCheckSignaturesIndices",
      "inputs": [
        {
          "name": "registryCoordinator",
          "type": "address",
          "internalType": "contract IRegistryCoordinator"
        },
        {
          "name": "referenceBlockNumber",
          "type": "uint32",
          "internalType": "uint32"
        },
        {
          "name": "quorumNumbers",
          "type": "bytes",
          "internalType": "bytes"
        },
        {
          "name": "nonSignerOperatorIds",
          "type": "bytes32[]",
          "internalType": "bytes32[]"
        }
      ],
      "outputs": [
        {
          "name": "",
          "type": "tuple",
          "internalType": "struct OperatorStateRetriever.CheckSignaturesIndices",
          "components": [
            {
              "name": "nonSignerQuorumBitmapIndices",
              "type": "uint32[]",
              "internalType": "uint32[]"
            },
            {
              "name": "quorumApkIndices",
              "type": "uint32[]",
              "internalType": "uint32[]"
            },
            {
              "name": "totalStakeIndices",
              "type": "uint32[]",
              "internalType": "uint32[]"
            },
            {
              "name": "nonSignerStakeIndices",
              "type": "uint32[][]",
              "internalType": "uint32[][]"
            }
          ]
        }
      ],
      "stateMutability": "view"
    },
    {
      "type": "function",
      "name": "getOperatorState",
      "inputs": [
        {
          "name": "registryCoordinator",
          "type": "address",
          "internalType": "contract IRegistryCoordinator"
        },
        {
          "name": "quorumNumbers",
          "type": "bytes",
          "internalType": "bytes"
        },
        {
          "name": "blockNumber",
          "type": "uint32",
          "internalType": "uint32"
        }
      ],
      "outputs": [
        {
          "name": "",
          "type": "tuple[][]",
          "internalType": "struct OperatorStateRetriever.Operator[][]",
          "components": [
            {
              "name": "operator",
              "type": "address",
              "internalType": "address"
            },
            {
              "name": "operatorId",
              "type": "bytes32",
              "internalType": "bytes32"
            },
            {
              "name": "stake",
              "type": "uint96",
              "internalType": "uint96"
            }
          ]
        }
      ],
      "stateMutability": "view"
    },
    {
      "type": "function",
      "name": "getOperatorState",
      "inputs": [
        {
          "name": "registryCoordinator",
          "type": "address",
          "internalType": "contract IRegistryCoordinator"
        },
        {
          "name": "operatorId",
          "type": "bytes32",
          "internalType": "bytes32"
        },
        {
          "name": "blockNumber",
          "type": "uint32",
          "internalType": "uint32"
        }
      ],
      "outputs": [
        {
          "name": "",
          "type": "uint256",
          "internalType": "uint256"
        },
        {
          "name": "",
          "type": "tuple[][]",
          "internalType": "struct OperatorStateRetriever.Operator[][]",
          "components": [
            {
              "name": "operator",
              "type": "address",
              "internalType": "address"
            },
            {
              "name": "operatorId",
              "type": "bytes32",
              "internalType": "bytes32"
            },
            {
              "name": "stake",
              "type": "uint96",
              "internalType": "uint96"
            }
          ]
        }
      ],
      "stateMutability": "view"
    },
    {
      "type": "function",
      "name": "getProof",
      "inputs": [
        {
          "name": "blockNumber",
          "type": "uint32",
          "internalType": "uint32"
        }
      ],
      "outputs": [
        {
          "name": "",
          "type": "bytes",
          "internalType": "bytes"
        }
      ],
      "stateMutability": "view"
    },
    {
      "type": "function",
      "name": "getQuorumBitmapsAtBlockNumber",
      "inputs": [
        {
          "name": "registryCoordinator",
          "type": "address",
          "internalType": "contract IRegistryCoordinator"
        },
        {
          "name": "operatorIds",
          "type": "bytes32[]",
          "internalType": "bytes32[]"
        },
        {
          "name": "blockNumber",
          "type": "uint32",
          "internalType": "uint32"
        }
      ],
      "outputs": [
        {
          "name": "",
          "type": "uint256[]",
          "internalType": "uint256[]"
        }
      ],
      "stateMutability": "view"
    },
    {
      "type": "function",
      "name": "getTaskResponseWindowBlock",
      "inputs": [],
      "outputs": [
        {
          "name": "",
          "type": "uint32",
          "internalType": "uint32"
        }
      ],
      "stateMutability": "view"
    },
    {
      "type": "function",
      "name": "initialize",
      "inputs": [
        {
          "name": "_pauserRegistry",
          "type": "address",
          "internalType": "contract IPauserRegistry"
        },
        {
          "name": "initialOwner",
          "type": "address",
          "internalType": "address"
        },
        {
          "name": "_aggregator",
          "type": "address",
          "internalType": "address"
        },
        {
          "name": "_generator",
          "type": "address",
          "internalType": "address"
        }
      ],
      "outputs": [],
      "stateMutability": "nonpayable"
    },
    {
      "type": "function",
      "name": "latestTaskNum",
      "inputs": [],
      "outputs": [
        {
          "name": "",
          "type": "uint32",
          "internalType": "uint32"
        }
      ],
      "stateMutability": "view"
    },
    {
      "type": "function",
      "name": "owner",
      "inputs": [],
      "outputs": [
        {
          "name": "",
          "type": "address",
          "internalType": "address"
        }
      ],
      "stateMutability": "view"
    },
    {
      "type": "function",
      "name": "pause",
      "inputs": [
        {
          "name": "newPausedStatus",
          "type": "uint256",
          "internalType": "uint256"
        }
      ],
      "outputs": [],
      "stateMutability": "nonpayable"
    },
    {
      "type": "function",
      "name": "pauseAll",
      "inputs": [],
      "outputs": [],
      "stateMutability": "nonpayable"
    },
    {
      "type": "function",
      "name": "paused",
      "inputs": [
        {
          "name": "index",
          "type": "uint8",
          "internalType": "uint8"
        }
      ],
      "outputs": [
        {
          "name": "",
          "type": "bool",
          "internalType": "bool"
        }
      ],
      "stateMutability": "view"
    },
    {
      "type": "function",
      "name": "paused",
      "inputs": [],
      "outputs": [
        {
          "name": "",
          "type": "uint256",
          "internalType": "uint256"
        }
      ],
      "stateMutability": "view"
    },
    {
      "type": "function",
      "name": "pauserRegistry",
      "inputs": [],
      "outputs": [
        {
          "name": "",
          "type": "address",
          "internalType": "contract IPauserRegistry"
        }
      ],
      "stateMutability": "view"
    },
    {
      "type": "function",
      "name": "registryCoordinator",
      "inputs": [],
      "outputs": [
        {
          "name": "",
          "type": "address",
          "internalType": "contract IRegistryCoordinator"
        }
      ],
      "stateMutability": "view"
    },
    {
      "type": "function",
      "name": "renounceOwnership",
      "inputs": [],
      "outputs": [],
      "stateMutability": "nonpayable"
    },
    {
      "type": "function",
      "name": "respondToTask",
      "inputs": [
        {
          "name": "task",
          "type": "tuple",
          "internalType": "struct IAxonAVSTaskManager.Task",
          "components": [
            {
              "name": "proof",
              "type": "bytes",
              "internalType": "bytes"
            },
            {
              "name": "taskCreatedBlock",
              "type": "uint32",
              "internalType": "uint32"
            },
            {
              "name": "quorumNumbers",
              "type": "bytes",
              "internalType": "bytes"
            },
            {
              "name": "quorumThresholdPercentage",
              "type": "uint32",
              "internalType": "uint32"
            }
          ]
        },
        {
          "name": "taskResponse",
          "type": "tuple",
          "internalType": "struct IAxonAVSTaskManager.TaskResponse",
          "components": [
            {
              "name": "referenceTaskIndex",
              "type": "uint32",
              "internalType": "uint32"
            }
          ]
        },
        {
          "name": "nonSignerStakesAndSignature",
          "type": "tuple",
          "internalType": "struct IBLSSignatureChecker.NonSignerStakesAndSignature",
          "components": [
            {
              "name": "nonSignerQuorumBitmapIndices",
              "type": "uint32[]",
              "internalType": "uint32[]"
            },
            {
              "name": "nonSignerPubkeys",
              "type": "tuple[]",
              "internalType": "struct BN254.G1Point[]",
              "components": [
                {
                  "name": "X",
                  "type": "uint256",
                  "internalType": "uint256"
                },
                {
                  "name": "Y",
                  "type": "uint256",
                  "internalType": "uint256"
                }
              ]
            },
            {
              "name": "quorumApks",
              "type": "tuple[]",
              "internalType": "struct BN254.G1Point[]",
              "components": [
                {
                  "name": "X",
                  "type": "uint256",
                  "internalType": "uint256"
                },
                {
                  "name": "Y",
                  "type": "uint256",
                  "internalType": "uint256"
                }
              ]
            },
            {
              "name": "apkG2",
              "type": "tuple",
              "internalType": "struct BN254.G2Point",
              "components": [
                {
                  "name": "X",
                  "type": "uint256[2]",
                  "internalType": "uint256[2]"
                },
                {
                  "name": "Y",
                  "type": "uint256[2]",
                  "internalType": "uint256[2]"
                }
              ]
            },
            {
              "name": "sigma",
              "type": "tuple",
              "internalType": "struct BN254.G1Point",
              "components": [
                {
                  "name": "X",
                  "type": "uint256",
                  "internalType": "uint256"
                },
                {
                  "name": "Y",
                  "type": "uint256",
                  "internalType": "uint256"
                }
              ]
            },
            {
              "name": "quorumApkIndices",
              "type": "uint32[]",
              "internalType": "uint32[]"
            },
            {
              "name": "totalStakeIndices",
              "type": "uint32[]",
              "internalType": "uint32[]"
            },
            {
              "name": "nonSignerStakeIndices",
              "type": "uint32[][]",
              "internalType": "uint32[][]"
            }
          ]
        }
      ],
      "outputs": [],
      "stateMutability": "nonpayable"
    },
    {
      "type": "function",
      "name": "setPauserRegistry",
      "inputs": [
        {
          "name": "newPauserRegistry",
          "type": "address",
          "internalType": "contract IPauserRegistry"
        }
      ],
      "outputs": [],
      "stateMutability": "nonpayable"
    },
    {
      "type": "function",
      "name": "setStaleStakesForbidden",
      "inputs": [
        {
          "name": "value",
          "type": "bool",
          "internalType": "bool"
        }
      ],
      "outputs": [],
      "stateMutability": "nonpayable"
    },
    {
      "type": "function",
      "name": "stakeRegistry",
      "inputs": [],
      "outputs": [
        {
          "name": "",
          "type": "address",
          "internalType": "contract IStakeRegistry"
        }
      ],
      "stateMutability": "view"
    },
    {
      "type": "function",
      "name": "staleStakesForbidden",
      "inputs": [],
      "outputs": [
        {
          "name": "",
          "type": "bool",
          "internalType": "bool"
        }
      ],
      "stateMutability": "view"
    },
    {
      "type": "function",
      "name": "taskSuccesfullyChallenged",
      "inputs": [
        {
          "name": "",
          "type": "uint32",
          "internalType": "uint32"
        }
      ],
      "outputs": [
        {
          "name": "",
          "type": "bool",
          "internalType": "bool"
        }
      ],
      "stateMutability": "view"
    },
    {
      "type": "function",
      "name": "transferOwnership",
      "inputs": [
        {
          "name": "newOwner",
          "type": "address",
          "internalType": "address"
        }
      ],
      "outputs": [],
      "stateMutability": "nonpayable"
    },
    {
      "type": "function",
      "name": "trySignatureAndApkVerification",
      "inputs": [
        {
          "name": "msgHash",
          "type": "bytes32",
          "internalType": "bytes32"
        },
        {
          "name": "apk",
          "type": "tuple",
          "internalType": "struct BN254.G1Point",
          "components": [
            {
              "name": "X",
              "type": "uint256",
              "internalType": "uint256"
            },
            {
              "name": "Y",
              "type": "uint256",
              "internalType": "uint256"
            }
          ]
        },
        {
          "name": "apkG2",
          "type": "tuple",
          "internalType": "struct BN254.G2Point",
          "components": [
            {
              "name": "X",
              "type": "uint256[2]",
              "internalType": "uint256[2]"
            },
            {
              "name": "Y",
              "type": "uint256[2]",
              "internalType": "uint256[2]"
            }
          ]
        },
        {
          "name": "sigma",
          "type": "tuple",
          "internalType": "struct BN254.G1Point",
          "components": [
            {
              "name": "X",
              "type": "uint256",
              "internalType": "uint256"
            },
            {
              "name": "Y",
              "type": "uint256",
              "internalType": "uint256"
            }
          ]
        }
      ],
      "outputs": [
        {
          "name": "pairingSuccessful",
          "type": "bool",
          "internalType": "bool"
        },
        {
          "name": "siganatureIsValid",
          "type": "bool",
          "internalType": "bool"
        }
      ],
      "stateMutability": "view"
    },
    {
      "type": "function",
      "name": "unpause",
      "inputs": [
        {
          "name": "newPausedStatus",
          "type": "uint256",
          "internalType": "uint256"
        }
      ],
      "outputs": [],
      "stateMutability": "nonpayable"
    },
    {
      "type": "event",
      "name": "Initialized",
      "inputs": [
        {
          "name": "version",
          "type": "uint8",
          "indexed": false,
          "internalType": "uint8"
        }
      ],
      "anonymous": false
    },
    {
      "type": "event",
      "name": "NewTaskCreated",
      "inputs": [
        {
          "name": "taskIndex",
          "type": "uint32",
          "indexed": true,
          "internalType": "uint32"
        },
        {
          "name": "task",
          "type": "tuple",
          "indexed": false,
          "internalType": "struct IAxonAVSTaskManager.Task",
          "components": [
            {
              "name": "proof",
              "type": "bytes",
              "internalType": "bytes"
            },
            {
              "name": "taskCreatedBlock",
              "type": "uint32",
              "internalType": "uint32"
            },
            {
              "name": "quorumNumbers",
              "type": "bytes",
              "internalType": "bytes"
            },
            {
              "name": "quorumThresholdPercentage",
              "type": "uint32",
              "internalType": "uint32"
            }
          ]
        }
      ],
      "anonymous": false
    },
    {
      "type": "event",
      "name": "OwnershipTransferred",
      "inputs": [
        {
          "name": "previousOwner",
          "type": "address",
          "indexed": true,
          "internalType": "address"
        },
        {
          "name": "newOwner",
          "type": "address",
          "indexed": true,
          "internalType": "address"
        }
      ],
      "anonymous": false
    },
    {
      "type": "event",
      "name": "Paused",
      "inputs": [
        {
          "name": "account",
          "type": "address",
          "indexed": true,
          "internalType": "address"
        },
        {
          "name": "newPausedStatus",
          "type": "uint256",
          "indexed": false,
          "internalType": "uint256"
        }
      ],
      "anonymous": false
    },
    {
      "type": "event",
      "name": "PauserRegistrySet",
      "inputs": [
        {
          "name": "pauserRegistry",
          "type": "address",
          "indexed": false,
          "internalType": "contract IPauserRegistry"
        },
        {
          "name": "newPauserRegistry",
          "type": "address",
          "indexed": false,
          "internalType": "contract IPauserRegistry"
        }
      ],
      "anonymous": false
    },
    {
      "type": "event",
      "name": "StaleStakesForbiddenUpdate",
      "inputs": [
        {
          "name": "value",
          "type": "bool",
          "indexed": false,
          "internalType": "bool"
        }
      ],
      "anonymous": false
    },
    {
      "type": "event",
      "name": "TaskCompleted",
      "inputs": [
        {
          "name": "taskIndex",
          "type": "uint32",
          "indexed": true,
          "internalType": "uint32"
        }
      ],
      "anonymous": false
    },
    {
      "type": "event",
      "name": "TaskResponded",
      "inputs": [
        {
          "name": "taskResponse",
          "type": "tuple",
          "indexed": false,
          "internalType": "struct IAxonAVSTaskManager.TaskResponse",
          "components": [
            {
              "name": "referenceTaskIndex",
              "type": "uint32",
              "internalType": "uint32"
            }
          ]
        },
        {
          "name": "taskResponseMetadata",
          "type": "tuple",
          "indexed": false,
          "internalType": "struct IAxonAVSTaskManager.TaskResponseMetadata",
          "components": [
            {
              "name": "taskResponsedBlock",
              "type": "uint32",
              "internalType": "uint32"
            },
            {
              "name": "hashOfNonSigners",
              "type": "bytes32",
              "internalType": "bytes32"
            }
          ]
        }
      ],
      "anonymous": false
    },
    {
      "type": "event",
      "name": "Unpaused",
      "inputs": [
        {
          "name": "account",
          "type": "address",
          "indexed": true,
          "internalType": "address"
        },
        {
          "name": "newPausedStatus",
          "type": "uint256",
          "indexed": false,
          "internalType": "uint256"
        }
      ],
      "anonymous": false
    }
  ],
  "bytecode": {
    "object": "0x6101206040523480156200001257600080fd5b5060405162005ec638038062005ec68339810160408190526200003591620001f7565b81806001600160a01b03166080816001600160a01b031681525050806001600160a01b031663683048356040518163ffffffff1660e01b8152600401602060405180830381865afa1580156200008f573d6000803e3d6000fd5b505050506040513d601f19601f82011682018060405250810190620000b591906200023e565b6001600160a01b031660a0816001600160a01b031681525050806001600160a01b0316635df459466040518163ffffffff1660e01b8152600401602060405180830381865afa1580156200010d573d6000803e3d6000fd5b505050506040513d601f19601f820116820180604052508101906200013391906200023e565b6001600160a01b031660c0816001600160a01b03168152505060a0516001600160a01b031663df5cf7236040518163ffffffff1660e01b8152600401602060405180830381865afa1580156200018d573d6000803e3d6000fd5b505050506040513d601f19601f82011682018060405250810190620001b391906200023e565b6001600160a01b031660e052506097805460ff1916600117905563ffffffff16610100525062000265565b6001600160a01b0381168114620001f457600080fd5b50565b600080604083850312156200020b57600080fd5b82516200021881620001de565b602084015190925063ffffffff811681146200023357600080fd5b809150509250929050565b6000602082840312156200025157600080fd5b81516200025e81620001de565b9392505050565b60805160a05160c05160e05161010051615bd6620002f060003960008181610288015281816105f90152612d6f0152600081816105c2015261233b015260008181610476015261251d01526000818161049d015281816126f301526128b50152600081816104c401528181611016015281816120060152818161219e01526123d80152615bd66000f3fe608060405234801561001057600080fd5b50600436106102275760003560e01c80635df45946116101305780638da5cb5b116100b8578063df5cf7231161007c578063df5cf723146105bd578063f2fde38b146105e4578063f5c9899d146105f7578063f8c8765e1461061d578063fabc1cbc1461063057600080fd5b80638da5cb5b146105585780639f1fa78a14610569578063b4173bce1461057c578063b98d09081461058f578063cefdc1d41461059c57600080fd5b8063715018a6116100ff578063715018a614610507578063784d283b1461050f5780637afa1eed14610522578063886f1195146105355780638b00ce7c1461054857600080fd5b80635df459461461047157806368304835146104985780636d14a987146104bf5780636efb4636146104e657600080fd5b80633563b0d1116101b3578063595c6a6711610182578063595c6a67146103eb5780635ac86ab7146103f35780635c155662146104265780635c975abb146104465780635decc3f51461044e57600080fd5b80633563b0d114610378578063416c7e5e146103985780634d2b57fe146103ab5780634f739f74146103cb57600080fd5b8063245a7bfc116101fa578063245a7bfc146102bf5780632cb223d5146102ea5780632d89f6fc1461031857806331b36bd91461033857806334884d5e1461035857600080fd5b806310d67a2f1461022c578063136439dd14610241578063171f1d5b146102545780631ad4318914610283575b600080fd5b61023f61023a3660046145ac565b610643565b005b61023f61024f3660046145c9565b6106ff565b610267610262366004614747565b61083e565b6040805192151583529015156020830152015b60405180910390f35b6102aa7f000000000000000000000000000000000000000000000000000000000000000081565b60405163ffffffff909116815260200161027a565b60ce546102d2906001600160a01b031681565b6040516001600160a01b03909116815260200161027a565b61030a6102f83660046147b5565b60cb6020526000908152604090205481565b60405190815260200161027a565b61030a6103263660046147b5565b60ca6020526000908152604090205481565b61034b6103463660046147f5565b6109c8565b60405161027a91906148e3565b61036b6103663660046147b5565b610ae4565b60405161027a919061494a565b61038b61038636600461495d565b610b7e565b60405161027a9190614ab8565b61023f6103a6366004614ad9565b611014565b6103be6103b9366004614b5c565b611189565b60405161027a9190614bab565b6103de6103d9366004614c40565b61129e565b60405161027a9190614d39565b61023f6119c4565b610416610401366004614e03565b606654600160ff9092169190911b9081161490565b604051901515815260200161027a565b610439610434366004614e20565b611a8b565b60405161027a9190614e83565b60665461030a565b61041661045c3660046147b5565b60cd6020526000908152604090205460ff1681565b6102d27f000000000000000000000000000000000000000000000000000000000000000081565b6102d27f000000000000000000000000000000000000000000000000000000000000000081565b6102d27f000000000000000000000000000000000000000000000000000000000000000081565b6104f96104f436600461512c565b611c53565b60405161027a9291906151ec565b61023f612b6a565b61023f61051d366004615235565b612b7e565b60cf546102d2906001600160a01b031681565b6065546102d2906001600160a01b031681565b60c9546102aa9063ffffffff1681565b6033546001600160a01b03166102d2565b61036b6105773660046147b5565b612ffd565b61023f61058a3660046152bd565b6130a6565b6097546104169060ff1681565b6105af6105aa366004615341565b613283565b60405161027a929190615378565b6102d27f000000000000000000000000000000000000000000000000000000000000000081565b61023f6105f23660046145ac565b613415565b7f00000000000000000000000000000000000000000000000000000000000000006102aa565b61023f61062b366004615399565b61348b565b61023f61063e3660046145c9565b6135dc565b606560009054906101000a90046001600160a01b03166001600160a01b031663eab66d7a6040518163ffffffff1660e01b8152600401602060405180830381865afa158015610696573d6000803e3d6000fd5b505050506040513d601f19601f820116820180604052508101906106ba91906153f5565b6001600160a01b0316336001600160a01b0316146106f35760405162461bcd60e51b81526004016106ea90615412565b60405180910390fd5b6106fc81613738565b50565b60655460405163237dfb4760e11b81523360048201526001600160a01b03909116906346fbf68e90602401602060405180830381865afa158015610747573d6000803e3d6000fd5b505050506040513d601f19601f8201168201806040525081019061076b919061545c565b6107875760405162461bcd60e51b81526004016106ea90615479565b606654818116146108005760405162461bcd60e51b815260206004820152603860248201527f5061757361626c652e70617573653a20696e76616c696420617474656d70742060448201527f746f20756e70617573652066756e6374696f6e616c697479000000000000000060648201526084016106ea565b606681905560405181815233907fab40a374bc51de372200a8bc981af8c9ecdc08dfdaef0bb6e09f88f3c616ef3d906020015b60405180910390a250565b60008060007f30644e72e131a029b85045b68181585d2833e84879b9709143e1f593f000000187876000015188602001518860000151600060028110610886576108866154c1565b60200201518951600160200201518a602001516000600281106108ab576108ab6154c1565b60200201518b602001516001600281106108c7576108c76154c1565b602090810291909101518c518d8301516040516109249a99989796959401988952602089019790975260408801959095526060870193909352608086019190915260a085015260c084015260e08301526101008201526101200190565b6040516020818303038152906040528051906020012060001c61094791906154d7565b90506109ba610960610959888461382f565b86906138c6565b61096861395a565b6109b06109a18561099b604080518082018252600080825260209182015281518083019092526001825260029082015290565b9061382f565b6109aa8c613a1a565b906138c6565b886201d4c0613aaa565b909890975095505050505050565b606081516001600160401b038111156109e3576109e36145e2565b604051908082528060200260200182016040528015610a0c578160200160208202803683370190505b50905060005b8251811015610add57836001600160a01b03166313542a4e848381518110610a3c57610a3c6154c1565b60200260200101516040518263ffffffff1660e01b8152600401610a6f91906001600160a01b0391909116815260200190565b602060405180830381865afa158015610a8c573d6000803e3d6000fd5b505050506040513d601f19601f82011682018060405250810190610ab091906154f9565b828281518110610ac257610ac26154c1565b6020908102919091010152610ad681615528565b9050610a12565b5092915050565b60cc6020526000908152604090208054610afd90615543565b80601f0160208091040260200160405190810160405280929190818152602001828054610b2990615543565b8015610b765780601f10610b4b57610100808354040283529160200191610b76565b820191906000526020600020905b815481529060010190602001808311610b5957829003601f168201915b505050505081565b60606000846001600160a01b031663683048356040518163ffffffff1660e01b8152600401602060405180830381865afa158015610bc0573d6000803e3d6000fd5b505050506040513d601f19601f82011682018060405250810190610be491906153f5565b90506000856001600160a01b0316639e9923c26040518163ffffffff1660e01b8152600401602060405180830381865afa158015610c26573d6000803e3d6000fd5b505050506040513d601f19601f82011682018060405250810190610c4a91906153f5565b90506000866001600160a01b0316635df459466040518163ffffffff1660e01b8152600401602060405180830381865afa158015610c8c573d6000803e3d6000fd5b505050506040513d601f19601f82011682018060405250810190610cb091906153f5565b9050600086516001600160401b03811115610ccd57610ccd6145e2565b604051908082528060200260200182016040528015610d0057816020015b6060815260200190600190039081610ceb5790505b50905060005b8751811015611008576000888281518110610d2357610d236154c1565b0160200151604051638902624560e01b815260f89190911c6004820181905263ffffffff8a16602483015291506000906001600160a01b03871690638902624590604401600060405180830381865afa158015610d84573d6000803e3d6000fd5b505050506040513d6000823e601f3d908101601f19168201604052610dac919081019061557e565b905080516001600160401b03811115610dc757610dc76145e2565b604051908082528060200260200182016040528015610e1257816020015b6040805160608101825260008082526020808301829052928201528252600019909201910181610de55790505b50848481518110610e2557610e256154c1565b602002602001018190525060005b8151811015610ff2576040518060600160405280876001600160a01b03166347b314e8858581518110610e6857610e686154c1565b60200260200101516040518263ffffffff1660e01b8152600401610e8e91815260200190565b602060405180830381865afa158015610eab573d6000803e3d6000fd5b505050506040513d601f19601f82011682018060405250810190610ecf91906153f5565b6001600160a01b03168152602001838381518110610eef57610eef6154c1565b60200260200101518152602001896001600160a01b031663fa28c627858581518110610f1d57610f1d6154c1565b60209081029190910101516040516001600160e01b031960e084901b168152600481019190915260ff8816602482015263ffffffff8f166044820152606401602060405180830381865afa158015610f79573d6000803e3d6000fd5b505050506040513d601f19601f82011682018060405250810190610f9d919061560e565b6001600160601b0316815250858581518110610fbb57610fbb6154c1565b60200260200101518281518110610fd457610fd46154c1565b60200260200101819052508080610fea90615528565b915050610e33565b505050808061100090615528565b915050610d06565b50979650505050505050565b7f00000000000000000000000000000000000000000000000000000000000000006001600160a01b0316638da5cb5b6040518163ffffffff1660e01b8152600401602060405180830381865afa158015611072573d6000803e3d6000fd5b505050506040513d601f19601f8201168201806040525081019061109691906153f5565b6001600160a01b0316336001600160a01b0316146111425760405162461bcd60e51b815260206004820152605c60248201527f424c535369676e6174757265436865636b65722e6f6e6c79436f6f7264696e6160448201527f746f724f776e65723a2063616c6c6572206973206e6f7420746865206f776e6560648201527f72206f6620746865207265676973747279436f6f7264696e61746f7200000000608482015260a4016106ea565b6097805460ff19168215159081179091556040519081527f40e4ed880a29e0f6ddce307457fb75cddf4feef7d3ecb0301bfdf4976a0e2dfc9060200160405180910390a150565b606081516001600160401b038111156111a4576111a46145e2565b6040519080825280602002602001820160405280156111cd578160200160208202803683370190505b50905060005b8251811015610add57836001600160a01b031663296bb0648483815181106111fd576111fd6154c1565b60200260200101516040518263ffffffff1660e01b815260040161122391815260200190565b602060405180830381865afa158015611240573d6000803e3d6000fd5b505050506040513d601f19601f8201168201806040525081019061126491906153f5565b828281518110611276576112766154c1565b6001600160a01b039092166020928302919091019091015261129781615528565b90506111d3565b6112c96040518060800160405280606081526020016060815260200160608152602001606081525090565b6000876001600160a01b031663683048356040518163ffffffff1660e01b8152600401602060405180830381865afa158015611309573d6000803e3d6000fd5b505050506040513d601f19601f8201168201806040525081019061132d91906153f5565b905061135a6040518060800160405280606081526020016060815260200160608152602001606081525090565b6040516361c8a12f60e11b81526001600160a01b038a169063c391425e9061138a908b9089908990600401615637565b600060405180830381865afa1580156113a7573d6000803e3d6000fd5b505050506040513d6000823e601f3d908101601f191682016040526113cf9190810190615681565b81526040516340e03a8160e11b81526001600160a01b038316906381c0750290611401908b908b908b90600401615738565b600060405180830381865afa15801561141e573d6000803e3d6000fd5b505050506040513d6000823e601f3d908101601f191682016040526114469190810190615681565b6040820152856001600160401b03811115611463576114636145e2565b60405190808252806020026020018201604052801561149657816020015b60608152602001906001900390816114815790505b50606082015260005b60ff81168711156118d5576000856001600160401b038111156114c4576114c46145e2565b6040519080825280602002602001820160405280156114ed578160200160208202803683370190505b5083606001518360ff1681518110611507576115076154c1565b602002602001018190525060005b868110156117d55760008c6001600160a01b03166304ec63518a8a85818110611540576115406154c1565b905060200201358e8860000151868151811061155e5761155e6154c1565b60200260200101516040518463ffffffff1660e01b815260040161159b9392919092835263ffffffff918216602084015216604082015260600190565b602060405180830381865afa1580156115b8573d6000803e3d6000fd5b505050506040513d601f19601f820116820180604052508101906115dc9190615761565b90506001600160c01b0381166116805760405162461bcd60e51b815260206004820152605c60248201527f4f70657261746f7253746174655265747269657665722e676574436865636b5360448201527f69676e617475726573496e64696365733a206f70657261746f72206d7573742060648201527f6265207265676973746572656420617420626c6f636b6e756d62657200000000608482015260a4016106ea565b8a8a8560ff16818110611695576116956154c1565b6001600160c01b03841692013560f81c9190911c6001908116141590506117c257856001600160a01b031663dd9846b98a8a858181106116d7576116d76154c1565b905060200201358d8d8860ff168181106116f3576116f36154c1565b6040516001600160e01b031960e087901b1681526004810194909452919091013560f81c60248301525063ffffffff8f166044820152606401602060405180830381865afa158015611749573d6000803e3d6000fd5b505050506040513d601f19601f8201168201806040525081019061176d919061578a565b85606001518560ff1681518110611786576117866154c1565b6020026020010151848151811061179f5761179f6154c1565b63ffffffff90921660209283029190910190910152826117be81615528565b9350505b50806117cd81615528565b915050611515565b506000816001600160401b038111156117f0576117f06145e2565b604051908082528060200260200182016040528015611819578160200160208202803683370190505b50905060005b8281101561189a5784606001518460ff1681518110611840576118406154c1565b60200260200101518181518110611859576118596154c1565b6020026020010151828281518110611873576118736154c1565b63ffffffff909216602092830291909101909101528061189281615528565b91505061181f565b508084606001518460ff16815181106118b5576118b56154c1565b6020026020010181905250505080806118cd906157a7565b91505061149f565b506000896001600160a01b0316635df459466040518163ffffffff1660e01b8152600401602060405180830381865afa158015611916573d6000803e3d6000fd5b505050506040513d601f19601f8201168201806040525081019061193a91906153f5565b60405163354952a360e21b81529091506001600160a01b0382169063d5254a8c9061196d908b908b908e906004016157c7565b600060405180830381865afa15801561198a573d6000803e3d6000fd5b505050506040513d6000823e601f3d908101601f191682016040526119b29190810190615681565b60208301525098975050505050505050565b60655460405163237dfb4760e11b81523360048201526001600160a01b03909116906346fbf68e90602401602060405180830381865afa158015611a0c573d6000803e3d6000fd5b505050506040513d601f19601f82011682018060405250810190611a30919061545c565b611a4c5760405162461bcd60e51b81526004016106ea90615479565b600019606681905560405190815233907fab40a374bc51de372200a8bc981af8c9ecdc08dfdaef0bb6e09f88f3c616ef3d9060200160405180910390a2565b60606000846001600160a01b031663c391425e84866040518363ffffffff1660e01b8152600401611abd9291906157f1565b600060405180830381865afa158015611ada573d6000803e3d6000fd5b505050506040513d6000823e601f3d908101601f19168201604052611b029190810190615681565b9050600084516001600160401b03811115611b1f57611b1f6145e2565b604051908082528060200260200182016040528015611b48578160200160208202803683370190505b50905060005b8551811015611c4957866001600160a01b03166304ec6351878381518110611b7857611b786154c1565b602002602001015187868581518110611b9357611b936154c1565b60200260200101516040518463ffffffff1660e01b8152600401611bd09392919092835263ffffffff918216602084015216604082015260600190565b602060405180830381865afa158015611bed573d6000803e3d6000fd5b505050506040513d601f19601f82011682018060405250810190611c119190615761565b6001600160c01b0316828281518110611c2c57611c2c6154c1565b602090810291909101015280611c4181615528565b915050611b4e565b5095945050505050565b6040805180820190915260608082526020820152600084611cca5760405162461bcd60e51b81526020600482015260376024820152600080516020615b8183398151915260448201527f7265733a20656d7074792071756f72756d20696e70757400000000000000000060648201526084016106ea565b60408301515185148015611ce2575060a08301515185145b8015611cf2575060c08301515185145b8015611d02575060e08301515185145b611d6c5760405162461bcd60e51b81526020600482015260416024820152600080516020615b8183398151915260448201527f7265733a20696e7075742071756f72756d206c656e677468206d69736d6174636064820152600d60fb1b608482015260a4016106ea565b82515160208401515114611de45760405162461bcd60e51b815260206004820152604460248201819052600080516020615b81833981519152908201527f7265733a20696e707574206e6f6e7369676e6572206c656e677468206d69736d6064820152630c2e8c6d60e31b608482015260a4016106ea565b4363ffffffff168463ffffffff1610611e535760405162461bcd60e51b815260206004820152603c6024820152600080516020615b8183398151915260448201527f7265733a20696e76616c6964207265666572656e636520626c6f636b0000000060648201526084016106ea565b6040805180820182526000808252602080830191909152825180840190935260608084529083015290866001600160401b03811115611e9457611e946145e2565b604051908082528060200260200182016040528015611ebd578160200160208202803683370190505b506020820152866001600160401b03811115611edb57611edb6145e2565b604051908082528060200260200182016040528015611f04578160200160208202803683370190505b50815260408051808201909152606080825260208201528560200151516001600160401b03811115611f3857611f386145e2565b604051908082528060200260200182016040528015611f61578160200160208202803683370190505b5081526020860151516001600160401b03811115611f8157611f816145e2565b604051908082528060200260200182016040528015611faa578160200160208202803683370190505b508160200181905250600061207c8a8a8080601f0160208091040260200160405190810160405280939291908181526020018383808284376000920191909152505060408051639aa1653d60e01b815290516001600160a01b037f0000000000000000000000000000000000000000000000000000000000000000169350639aa1653d925060048083019260209291908290030181865afa158015612053573d6000803e3d6000fd5b505050506040513d601f19601f820116820180604052508101906120779190615810565b613cce565b905060005b876020015151811015612317576120c6886020015182815181106120a7576120a76154c1565b6020026020010151805160009081526020918201519091526040902090565b836020015182815181106120dc576120dc6154c1565b6020908102919091010152801561219c5760208301516120fd60018361582d565b8151811061210d5761210d6154c1565b602002602001015160001c8360200151828151811061212e5761212e6154c1565b602002602001015160001c1161219c576040805162461bcd60e51b8152602060048201526024810191909152600080516020615b8183398151915260448201527f7265733a206e6f6e5369676e65725075626b657973206e6f7420736f7274656460648201526084016106ea565b7f00000000000000000000000000000000000000000000000000000000000000006001600160a01b03166304ec6351846020015183815181106121e1576121e16154c1565b60200260200101518b8b600001518581518110612200576122006154c1565b60200260200101516040518463ffffffff1660e01b815260040161223d9392919092835263ffffffff918216602084015216604082015260600190565b602060405180830381865afa15801561225a573d6000803e3d6000fd5b505050506040513d601f19601f8201168201806040525081019061227e9190615761565b6001600160c01b03168360000151828151811061229d5761229d6154c1565b6020026020010181815250506123036109596122d784866000015185815181106122c9576122c96154c1565b602002602001015116613d61565b8a6020015184815181106122ed576122ed6154c1565b6020026020010151613d8c90919063ffffffff16565b94508061230f81615528565b915050612081565b505061232283613e70565b60975490935060ff166000816123395760006123bb565b7f00000000000000000000000000000000000000000000000000000000000000006001600160a01b031663c448feb86040518163ffffffff1660e01b8152600401602060405180830381865afa158015612397573d6000803e3d6000fd5b505050506040513d601f19601f820116820180604052508101906123bb91906154f9565b905060005b8a811015612a3957821561251b578963ffffffff16827f00000000000000000000000000000000000000000000000000000000000000006001600160a01b031663249a0c428f8f86818110612417576124176154c1565b60405160e085901b6001600160e01b031916815292013560f81c600483015250602401602060405180830381865afa158015612457573d6000803e3d6000fd5b505050506040513d601f19601f8201168201806040525081019061247b91906154f9565b6124859190615844565b1161251b5760405162461bcd60e51b81526020600482015260666024820152600080516020615b8183398151915260448201527f7265733a205374616b6552656769737472792075706461746573206d7573742060648201527f62652077697468696e207769746864726177616c44656c6179426c6f636b732060848201526577696e646f7760d01b60a482015260c4016106ea565b7f00000000000000000000000000000000000000000000000000000000000000006001600160a01b03166368bccaac8d8d8481811061255c5761255c6154c1565b9050013560f81c60f81b60f81c8c8c60a001518581518110612580576125806154c1565b60209081029190910101516040516001600160e01b031960e086901b16815260ff909316600484015263ffffffff9182166024840152166044820152606401602060405180830381865afa1580156125dc573d6000803e3d6000fd5b505050506040513d601f19601f82011682018060405250810190612600919061585c565b6001600160401b0319166126238a6040015183815181106120a7576120a76154c1565b67ffffffffffffffff1916146126bf5760405162461bcd60e51b81526020600482015260616024820152600080516020615b8183398151915260448201527f7265733a2071756f72756d41706b206861736820696e2073746f72616765206460648201527f6f6573206e6f74206d617463682070726f76696465642071756f72756d2061706084820152606b60f81b60a482015260c4016106ea565b6126ef896040015182815181106126d8576126d86154c1565b6020026020010151876138c690919063ffffffff16565b95507f00000000000000000000000000000000000000000000000000000000000000006001600160a01b031663c8294c568d8d84818110612732576127326154c1565b9050013560f81c60f81b60f81c8c8c60c001518581518110612756576127566154c1565b60209081029190910101516040516001600160e01b031960e086901b16815260ff909316600484015263ffffffff9182166024840152166044820152606401602060405180830381865afa1580156127b2573d6000803e3d6000fd5b505050506040513d601f19601f820116820180604052508101906127d6919061560e565b856020015182815181106127ec576127ec6154c1565b6001600160601b03909216602092830291909101820152850151805182908110612818576128186154c1565b602002602001015185600001518281518110612836576128366154c1565b60200260200101906001600160601b031690816001600160601b0316815250506000805b8a6020015151811015612a24576128ae86600001518281518110612880576128806154c1565b60200260200101518f8f8681811061289a5761289a6154c1565b600192013560f81c9290921c811614919050565b15612a12577f00000000000000000000000000000000000000000000000000000000000000006001600160a01b031663f2be94ae8f8f868181106128f4576128f46154c1565b9050013560f81c60f81b60f81c8e89602001518581518110612918576129186154c1565b60200260200101518f60e001518881518110612936576129366154c1565b6020026020010151878151811061294f5761294f6154c1565b60209081029190910101516040516001600160e01b031960e087901b16815260ff909416600485015263ffffffff92831660248501526044840191909152166064820152608401602060405180830381865afa1580156129b3573d6000803e3d6000fd5b505050506040513d601f19601f820116820180604052508101906129d7919061560e565b87518051859081106129eb576129eb6154c1565b602002602001018181516129ff9190615887565b6001600160601b03169052506001909101905b80612a1c81615528565b91505061285a565b50508080612a3190615528565b9150506123c0565b505050600080612a538c868a606001518b6080015161083e565b9150915081612ac45760405162461bcd60e51b81526020600482015260436024820152600080516020615b8183398151915260448201527f7265733a2070616972696e6720707265636f6d70696c652063616c6c206661696064820152621b195960ea1b608482015260a4016106ea565b80612b255760405162461bcd60e51b81526020600482015260396024820152600080516020615b8183398151915260448201527f7265733a207369676e617475726520697320696e76616c69640000000000000060648201526084016106ea565b50506000878260200151604051602001612b409291906158af565b60408051808303601f190181529190528051602090910120929b929a509198505050505050505050565b612b72613f0b565b612b7c6000613f65565b565b60ce546001600160a01b03163314612bd85760405162461bcd60e51b815260206004820152601d60248201527f41676772656761746f72206d757374206265207468652063616c6c657200000060448201526064016106ea565b6000612bea60408501602086016147b5565b9050366000612bfc60408701876158f7565b90925090506000612c1360808801606089016147b5565b905060ca6000612c2660208901896147b5565b63ffffffff1663ffffffff1681526020019081526020016000205487604051602001612c529190615982565b6040516020818303038152906040528051906020012014612cdb5760405162461bcd60e51b815260206004820152603d60248201527f737570706c696564207461736b20646f6573206e6f74206d617463682074686560448201527f206f6e65207265636f7264656420696e2074686520636f6e747261637400000060648201526084016106ea565b600060cb81612ced60208a018a6147b5565b63ffffffff1663ffffffff1681526020019081526020016000205414612d6a5760405162461bcd60e51b815260206004820152602c60248201527f41676772656761746f722068617320616c726561647920726573706f6e64656460448201526b20746f20746865207461736b60a01b60648201526084016106ea565b612d947f000000000000000000000000000000000000000000000000000000000000000085615a0f565b63ffffffff164363ffffffff161115612e055760405162461bcd60e51b815260206004820152602d60248201527f41676772656761746f722068617320726573706f6e64656420746f207468652060448201526c7461736b20746f6f206c61746560981b60648201526084016106ea565b600086604051602001612e189190615a37565b604051602081830303815290604052805190602001209050600080612e408387878a8c611c53565b9150915060005b85811015612f3f578460ff1683602001518281518110612e6957612e696154c1565b6020026020010151612e7b9190615a54565b6001600160601b0316606484600001518381518110612e9c57612e9c6154c1565b60200260200101516001600160601b0316612eb79190615a83565b1015612f2d576040805162461bcd60e51b81526020600482015260248101919091527f5369676e61746f7269657320646f206e6f74206f776e206174206c656173742060448201527f7468726573686f6c642070657263656e74616765206f6620612071756f72756d60648201526084016106ea565b80612f3781615528565b915050612e47565b5060408051808201825263ffffffff43168152602080820184905291519091612f6c918c91849101615aa2565b6040516020818303038152906040528051906020012060cb60008c6000016020810190612f9991906147b5565b63ffffffff1663ffffffff168152602001908152602001600020819055507f9c4dc0236ef7d75fb3810964843a2d923a1dbe6777add83a408516c705fe97658a82604051612fe8929190615aa2565b60405180910390a15050505050505050505050565b63ffffffff8116600090815260cc6020526040902080546060919061302190615543565b80601f016020809104026020016040519081016040528092919081815260200182805461304d90615543565b801561309a5780601f1061306f5761010080835404028352916020019161309a565b820191906000526020600020905b81548152906001019060200180831161307d57829003601f168201915b50505050509050919050565b60cf546001600160a01b0316331461310a5760405162461bcd60e51b815260206004820152602160248201527f5461736b2067656e657261746f72206d757374206265207468652063616c6c656044820152603960f91b60648201526084016106ea565b60408051608081018252606080825260006020830181905292820181905281019190915285858080601f01602080910402602001604051908101604052809392919081815260200183838082843760009201919091525050509082525063ffffffff438116602080840191909152908516606083015260408051601f8501839004830281018301909152838152908490849081908401838280828437600092019190915250505050604080830191909152516131ca908290602001615ad7565b60408051601f19818403018152828252805160209182012060c9805463ffffffff908116600090815260ca90945293909220555416907f2b864a38ca408a0f5b11acbe8fac005170342bc07398bba9a49febd9e6587a669061322d908490615ad7565b60405180910390a260c9546132499063ffffffff166001615a0f565b60c9805463ffffffff191663ffffffff9283161790554316600090815260cc6020526040902061327a908787614424565b50505050505050565b60408051600180825281830190925260009160609183916020808301908036833701905050905084816000815181106132be576132be6154c1565b60209081029190910101526040516361c8a12f60e11b81526000906001600160a01b0388169063c391425e906132fa90889086906004016157f1565b600060405180830381865afa158015613317573d6000803e3d6000fd5b505050506040513d6000823e601f3d908101601f1916820160405261333f9190810190615681565b600081518110613351576133516154c1565b60209081029190910101516040516304ec635160e01b81526004810188905263ffffffff87811660248301529091166044820181905291506000906001600160a01b038916906304ec635190606401602060405180830381865afa1580156133bd573d6000803e3d6000fd5b505050506040513d601f19601f820116820180604052508101906133e19190615761565b6001600160c01b0316905060006133f782613fb7565b9050816134058a838a610b7e565b9550955050505050935093915050565b61341d613f0b565b6001600160a01b0381166134825760405162461bcd60e51b815260206004820152602660248201527f4f776e61626c653a206e6577206f776e657220697320746865207a65726f206160448201526564647265737360d01b60648201526084016106ea565b6106fc81613f65565b600054610100900460ff16158080156134ab5750600054600160ff909116105b806134c55750303b1580156134c5575060005460ff166001145b6135285760405162461bcd60e51b815260206004820152602e60248201527f496e697469616c697a61626c653a20636f6e747261637420697320616c72656160448201526d191e481a5b9a5d1a585b1a5e995960921b60648201526084016106ea565b6000805460ff19166001179055801561354b576000805461ff0019166101001790555b613556856000614083565b61355f84613f65565b60ce80546001600160a01b038086166001600160a01b03199283161790925560cf80549285169290911691909117905580156135d5576000805461ff0019169055604051600181527f7f26b83ff96e1f2b6a682f133852f6798a09c465da95921460cefb38474024989060200160405180910390a15b5050505050565b606560009054906101000a90046001600160a01b03166001600160a01b031663eab66d7a6040518163ffffffff1660e01b8152600401602060405180830381865afa15801561362f573d6000803e3d6000fd5b505050506040513d601f19601f8201168201806040525081019061365391906153f5565b6001600160a01b0316336001600160a01b0316146136835760405162461bcd60e51b81526004016106ea90615412565b6066541981196066541916146137015760405162461bcd60e51b815260206004820152603860248201527f5061757361626c652e756e70617573653a20696e76616c696420617474656d7060448201527f7420746f2070617573652066756e6374696f6e616c697479000000000000000060648201526084016106ea565b606681905560405181815233907f3582d1828e26bf56bd801502bc021ac0bc8afb57c826e4986b45593c8fad389c90602001610833565b6001600160a01b0381166137c65760405162461bcd60e51b815260206004820152604960248201527f5061757361626c652e5f73657450617573657252656769737472793a206e657760448201527f50617573657252656769737472792063616e6e6f7420626520746865207a65726064820152686f206164647265737360b81b608482015260a4016106ea565b606554604080516001600160a01b03928316815291831660208301527f6e9fcd539896fca60e8b0f01dd580233e48a6b0f7df013b89ba7f565869acdb6910160405180910390a1606580546001600160a01b0319166001600160a01b0392909216919091179055565b604080518082019091526000808252602082015261384b6144a8565b835181526020808501519082015260408082018490526000908360608460076107d05a03fa905080801561387e57613880565bfe5b50806138be5760405162461bcd60e51b815260206004820152600d60248201526c1958cb5b5d5b0b59985a5b1959609a1b60448201526064016106ea565b505092915050565b60408051808201909152600080825260208201526138e26144c6565b835181526020808501518183015283516040808401919091529084015160608301526000908360808460066107d05a03fa905080801561387e5750806138be5760405162461bcd60e51b815260206004820152600d60248201526c1958cb5859190b59985a5b1959609a1b60448201526064016106ea565b6139626144e4565b50604080516080810182527f198e9393920d483a7260bfb731fb5d25f1aa493335a9e71297e485b7aef312c28183019081527f1800deef121f1e76426a00665e5c4479674322d4f75edadd46debd5cd992f6ed6060830152815281518083019092527f275dc4a288d1afb3cbb1ac09187524c7db36395df7be3b99e673b13a075a65ec82527f1d9befcd05a5323e6da4d435f3b617cdb3af83285c2df711ef39c01571827f9d60208381019190915281019190915290565b604080518082019091526000808252602082015260008080613a4a600080516020615b61833981519152866154d7565b90505b613a568161416d565b9093509150600080516020615b61833981519152828309831415613a90576040805180820190915290815260208101919091529392505050565b600080516020615b61833981519152600182089050613a4d565b604080518082018252868152602080820186905282518084019093528683528201849052600091829190613adc614509565b60005b6002811015613ca1576000613af5826006615a83565b9050848260028110613b0957613b096154c1565b60200201515183613b1b836000615844565b600c8110613b2b57613b2b6154c1565b6020020152848260028110613b4257613b426154c1565b60200201516020015183826001613b599190615844565b600c8110613b6957613b696154c1565b6020020152838260028110613b8057613b806154c1565b6020020151515183613b93836002615844565b600c8110613ba357613ba36154c1565b6020020152838260028110613bba57613bba6154c1565b6020020151516001602002015183613bd3836003615844565b600c8110613be357613be36154c1565b6020020152838260028110613bfa57613bfa6154c1565b602002015160200151600060028110613c1557613c156154c1565b602002015183613c26836004615844565b600c8110613c3657613c366154c1565b6020020152838260028110613c4d57613c4d6154c1565b602002015160200151600160028110613c6857613c686154c1565b602002015183613c79836005615844565b600c8110613c8957613c896154c1565b60200201525080613c9981615528565b915050613adf565b50613caa614528565b60006020826101808560088cfa9151919c9115159b50909950505050505050505050565b600080613cda846141ef565b9050808360ff166001901b11613d585760405162461bcd60e51b815260206004820152603f60248201527f4269746d61705574696c732e6f72646572656442797465734172726179546f4260448201527f69746d61703a206269746d61702065786365656473206d61782076616c75650060648201526084016106ea565b90505b92915050565b6000805b8215613d5b57613d7660018461582d565b9092169180613d8481615b3e565b915050613d65565b60408051808201909152600080825260208201526102008261ffff1610613de85760405162461bcd60e51b815260206004820152601060248201526f7363616c61722d746f6f2d6c6172676560801b60448201526064016106ea565b8161ffff1660011415613dfc575081613d5b565b6040805180820190915260008082526020820181905284906001905b8161ffff168661ffff1610613e6557600161ffff871660ff83161c81161415613e4857613e4584846138c6565b93505b613e5283846138c6565b92506201fffe600192831b169101613e18565b509195945050505050565b60408051808201909152600080825260208201528151158015613e9557506020820151155b15613eb3575050604080518082019091526000808252602082015290565b604051806040016040528083600001518152602001600080516020615b618339815191528460200151613ee691906154d7565b613efe90600080516020615b6183398151915261582d565b905292915050565b919050565b6033546001600160a01b03163314612b7c5760405162461bcd60e51b815260206004820181905260248201527f4f776e61626c653a2063616c6c6572206973206e6f7420746865206f776e657260448201526064016106ea565b603380546001600160a01b038381166001600160a01b0319831681179093556040519116919082907f8be0079c531659141344cd1fd0a4f28419497f9722a3daafe3b4186f6b6457e090600090a35050565b6060600080613fc584613d61565b61ffff166001600160401b03811115613fe057613fe06145e2565b6040519080825280601f01601f19166020018201604052801561400a576020820181803683370190505b5090506000805b825182108015614022575061010081105b15614079576001811b935085841615614069578060f81b83838151811061404b5761404b6154c1565b60200101906001600160f81b031916908160001a9053508160010191505b61407281615528565b9050614011565b5090949350505050565b6065546001600160a01b03161580156140a457506001600160a01b03821615155b6141265760405162461bcd60e51b815260206004820152604760248201527f5061757361626c652e5f696e697469616c697a655061757365723a205f696e6960448201527f7469616c697a6550617573657228292063616e206f6e6c792062652063616c6c6064820152666564206f6e636560c81b608482015260a4016106ea565b606681905560405181815233907fab40a374bc51de372200a8bc981af8c9ecdc08dfdaef0bb6e09f88f3c616ef3d9060200160405180910390a261416982613738565b5050565b60008080600080516020615b618339815191526003600080516020615b6183398151915286600080516020615b618339815191528889090908905060006141e3827f0c19139cb84c680a6e14116da060561765e05aa45a1c72a34f082305b61f3f52600080516020615b6183398151915261437c565b91959194509092505050565b6000610100825111156142785760405162461bcd60e51b8152602060048201526044602482018190527f4269746d61705574696c732e6f72646572656442797465734172726179546f42908201527f69746d61703a206f7264657265644279746573417272617920697320746f6f206064820152636c6f6e6760e01b608482015260a4016106ea565b815161428657506000919050565b6000808360008151811061429c5761429c6154c1565b0160200151600160f89190911c81901b92505b8451811015614373578481815181106142ca576142ca6154c1565b0160200151600160f89190911c1b915082821161435f5760405162461bcd60e51b815260206004820152604760248201527f4269746d61705574696c732e6f72646572656442797465734172726179546f4260448201527f69746d61703a206f72646572656442797465734172726179206973206e6f74206064820152661bdc99195c995960ca1b608482015260a4016106ea565b9181179161436c81615528565b90506142af565b50909392505050565b600080614387614528565b61438f614546565b602080825281810181905260408201819052606082018890526080820187905260a082018690528260c08360056107d05a03fa925082801561387e5750826144195760405162461bcd60e51b815260206004820152601a60248201527f424e3235342e6578704d6f643a2063616c6c206661696c75726500000000000060448201526064016106ea565b505195945050505050565b82805461443090615543565b90600052602060002090601f0160209004810192826144525760008555614498565b82601f1061446b5782800160ff19823516178555614498565b82800160010185558215614498579182015b8281111561449857823582559160200191906001019061447d565b506144a4929150614564565b5090565b60405180606001604052806003906020820280368337509192915050565b60405180608001604052806004906020820280368337509192915050565b60405180604001604052806144f7614579565b8152602001614504614579565b905290565b604051806101800160405280600c906020820280368337509192915050565b60405180602001604052806001906020820280368337509192915050565b6040518060c001604052806006906020820280368337509192915050565b5b808211156144a45760008155600101614565565b60405180604001604052806002906020820280368337509192915050565b6001600160a01b03811681146106fc57600080fd5b6000602082840312156145be57600080fd5b8135613d5881614597565b6000602082840312156145db57600080fd5b5035919050565b634e487b7160e01b600052604160045260246000fd5b604080519081016001600160401b038111828210171561461a5761461a6145e2565b60405290565b60405161010081016001600160401b038111828210171561461a5761461a6145e2565b604051601f8201601f191681016001600160401b038111828210171561466b5761466b6145e2565b604052919050565b60006040828403121561468557600080fd5b61468d6145f8565b9050813581526020820135602082015292915050565b600082601f8301126146b457600080fd5b604051604081018181106001600160401b03821117156146d6576146d66145e2565b80604052508060408401858111156146ed57600080fd5b845b81811015613e655780358352602092830192016146ef565b60006080828403121561471957600080fd5b6147216145f8565b905061472d83836146a3565b815261473c83604084016146a3565b602082015292915050565b600080600080610120858703121561475e57600080fd5b8435935061476f8660208701614673565b925061477e8660608701614707565b915061478d8660e08701614673565b905092959194509250565b63ffffffff811681146106fc57600080fd5b8035613f0681614798565b6000602082840312156147c757600080fd5b8135613d5881614798565b60006001600160401b038211156147eb576147eb6145e2565b5060051b60200190565b6000806040838503121561480857600080fd5b823561481381614597565b91506020838101356001600160401b0381111561482f57600080fd5b8401601f8101861361484057600080fd5b803561485361484e826147d2565b614643565b81815260059190911b8201830190838101908883111561487257600080fd5b928401925b8284101561489957833561488a81614597565b82529284019290840190614877565b80955050505050509250929050565b600081518084526020808501945080840160005b838110156148d8578151875295820195908201906001016148bc565b509495945050505050565b6020815260006148f660208301846148a8565b9392505050565b6000815180845260005b8181101561492357602081850181015186830182015201614907565b81811115614935576000602083870101525b50601f01601f19169290920160200192915050565b6020815260006148f660208301846148fd565b60008060006060848603121561497257600080fd5b833561497d81614597565b92506020848101356001600160401b038082111561499a57600080fd5b818701915087601f8301126149ae57600080fd5b8135818111156149c0576149c06145e2565b6149d2601f8201601f19168501614643565b915080825288848285010111156149e857600080fd5b8084840185840137600084828401015250809450505050614a0b604085016147aa565b90509250925092565b600081518084526020808501808196508360051b810191508286016000805b86811015614aaa578385038a52825180518087529087019087870190845b81811015614a9557835180516001600160a01b031684528a8101518b8501526040908101516001600160601b03169084015292890192606090920191600101614a51565b50509a87019a95505091850191600101614a33565b509298975050505050505050565b6020815260006148f66020830184614a14565b80151581146106fc57600080fd5b600060208284031215614aeb57600080fd5b8135613d5881614acb565b600082601f830112614b0757600080fd5b81356020614b1761484e836147d2565b82815260059290921b84018101918181019086841115614b3657600080fd5b8286015b84811015614b515780358352918301918301614b3a565b509695505050505050565b60008060408385031215614b6f57600080fd5b8235614b7a81614597565b915060208301356001600160401b03811115614b9557600080fd5b614ba185828601614af6565b9150509250929050565b6020808252825182820181905260009190848201906040850190845b81811015614bec5783516001600160a01b031683529284019291840191600101614bc7565b50909695505050505050565b60008083601f840112614c0a57600080fd5b5081356001600160401b03811115614c2157600080fd5b602083019150836020828501011115614c3957600080fd5b9250929050565b60008060008060008060808789031215614c5957600080fd5b8635614c6481614597565b95506020870135614c7481614798565b945060408701356001600160401b0380821115614c9057600080fd5b614c9c8a838b01614bf8565b90965094506060890135915080821115614cb557600080fd5b818901915089601f830112614cc957600080fd5b813581811115614cd857600080fd5b8a60208260051b8501011115614ced57600080fd5b6020830194508093505050509295509295509295565b600081518084526020808501945080840160005b838110156148d857815163ffffffff1687529582019590820190600101614d17565b600060208083528351608082850152614d5560a0850182614d03565b905081850151601f1980868403016040870152614d728383614d03565b92506040870151915080868403016060870152614d8f8383614d03565b60608801518782038301608089015280518083529194508501925084840190600581901b8501860160005b82811015614de65784878303018452614dd4828751614d03565b95880195938801939150600101614dba565b509998505050505050505050565b60ff811681146106fc57600080fd5b600060208284031215614e1557600080fd5b8135613d5881614df4565b600080600060608486031215614e3557600080fd5b8335614e4081614597565b925060208401356001600160401b03811115614e5b57600080fd5b614e6786828701614af6565b9250506040840135614e7881614798565b809150509250925092565b6020808252825182820181905260009190848201906040850190845b81811015614bec57835183529284019291840191600101614e9f565b600082601f830112614ecc57600080fd5b81356020614edc61484e836147d2565b82815260059290921b84018101918181019086841115614efb57600080fd5b8286015b84811015614b51578035614f1281614798565b8352918301918301614eff565b600082601f830112614f3057600080fd5b81356020614f4061484e836147d2565b82815260069290921b84018101918181019086841115614f5f57600080fd5b8286015b84811015614b5157614f758882614673565b835291830191604001614f63565b600082601f830112614f9457600080fd5b81356020614fa461484e836147d2565b82815260059290921b84018101918181019086841115614fc357600080fd5b8286015b84811015614b515780356001600160401b03811115614fe65760008081fd5b614ff48986838b0101614ebb565b845250918301918301614fc7565b6000610180828403121561501557600080fd5b61501d614620565b905081356001600160401b038082111561503657600080fd5b61504285838601614ebb565b8352602084013591508082111561505857600080fd5b61506485838601614f1f565b6020840152604084013591508082111561507d57600080fd5b61508985838601614f1f565b604084015261509b8560608601614707565b60608401526150ad8560e08601614673565b60808401526101208401359150808211156150c757600080fd5b6150d385838601614ebb565b60a08401526101408401359150808211156150ed57600080fd5b6150f985838601614ebb565b60c084015261016084013591508082111561511357600080fd5b5061512084828501614f83565b60e08301525092915050565b60008060008060006080868803121561514457600080fd5b8535945060208601356001600160401b038082111561516257600080fd5b61516e89838a01614bf8565b90965094506040880135915061518382614798565b9092506060870135908082111561519957600080fd5b506151a688828901615002565b9150509295509295909350565b600081518084526020808501945080840160005b838110156148d85781516001600160601b0316875295820195908201906001016151c7565b604081526000835160408084015261520760808401826151b3565b90506020850151603f1984830301606085015261522482826151b3565b925050508260208301529392505050565b6000806000838503606081121561524b57600080fd5b84356001600160401b038082111561526257600080fd5b908601906080828903121561527657600080fd5b8195506020601f198401121561528b57600080fd5b60208701945060408701359250808311156152a557600080fd5b50506152b386828701615002565b9150509250925092565b6000806000806000606086880312156152d557600080fd5b85356001600160401b03808211156152ec57600080fd5b6152f889838a01614bf8565b90975095506020880135915061530d82614798565b9093506040870135908082111561532357600080fd5b5061533088828901614bf8565b969995985093965092949392505050565b60008060006060848603121561535657600080fd5b833561536181614597565b9250602084013591506040840135614e7881614798565b8281526040602082015260006153916040830184614a14565b949350505050565b600080600080608085870312156153af57600080fd5b84356153ba81614597565b935060208501356153ca81614597565b925060408501356153da81614597565b915060608501356153ea81614597565b939692955090935050565b60006020828403121561540757600080fd5b8151613d5881614597565b6020808252602a908201527f6d73672e73656e646572206973206e6f74207065726d697373696f6e6564206160408201526939903ab73830bab9b2b960b11b606082015260800190565b60006020828403121561546e57600080fd5b8151613d5881614acb565b60208082526028908201527f6d73672e73656e646572206973206e6f74207065726d697373696f6e6564206160408201526739903830bab9b2b960c11b606082015260800190565b634e487b7160e01b600052603260045260246000fd5b6000826154f457634e487b7160e01b600052601260045260246000fd5b500690565b60006020828403121561550b57600080fd5b5051919050565b634e487b7160e01b600052601160045260246000fd5b600060001982141561553c5761553c615512565b5060010190565b600181811c9082168061555757607f821691505b6020821081141561557857634e487b7160e01b600052602260045260246000fd5b50919050565b6000602080838503121561559157600080fd5b82516001600160401b038111156155a757600080fd5b8301601f810185136155b857600080fd5b80516155c661484e826147d2565b81815260059190911b820183019083810190878311156155e557600080fd5b928401925b82841015615603578351825292840192908401906155ea565b979650505050505050565b60006020828403121561562057600080fd5b81516001600160601b0381168114613d5857600080fd5b63ffffffff84168152604060208201819052810182905260006001600160fb1b0383111561566457600080fd5b8260051b8085606085013760009201606001918252509392505050565b6000602080838503121561569457600080fd5b82516001600160401b038111156156aa57600080fd5b8301601f810185136156bb57600080fd5b80516156c961484e826147d2565b81815260059190911b820183019083810190878311156156e857600080fd5b928401925b8284101561560357835161570081614798565b825292840192908401906156ed565b81835281816020850137506000828201602090810191909152601f909101601f19169091010190565b63ffffffff8416815260406020820152600061575860408301848661570f565b95945050505050565b60006020828403121561577357600080fd5b81516001600160c01b0381168114613d5857600080fd5b60006020828403121561579c57600080fd5b8151613d5881614798565b600060ff821660ff8114156157be576157be615512565b60010192915050565b6040815260006157db60408301858761570f565b905063ffffffff83166020830152949350505050565b63ffffffff8316815260406020820152600061539160408301846148a8565b60006020828403121561582257600080fd5b8151613d5881614df4565b60008282101561583f5761583f615512565b500390565b6000821982111561585757615857615512565b500190565b60006020828403121561586e57600080fd5b815167ffffffffffffffff1981168114613d5857600080fd5b60006001600160601b03838116908316818110156158a7576158a7615512565b039392505050565b63ffffffff60e01b8360e01b1681526000600482018351602080860160005b838110156158ea578151855293820193908201906001016158ce565b5092979650505050505050565b6000808335601e1984360301811261590e57600080fd5b8301803591506001600160401b0382111561592857600080fd5b602001915036819003821315614c3957600080fd5b6000808335601e1984360301811261595457600080fd5b83016020810192503590506001600160401b0381111561597357600080fd5b803603831315614c3957600080fd5b602081526000615992838461593d565b608060208501526159a760a08501828461570f565b91505060208401356159b881614798565b63ffffffff80821660408601526159d2604087018761593d565b868503601f1901606088015292506159eb84848361570f565b935050606086013591506159fe82614798565b166080939093019290925250919050565b600063ffffffff808316818516808303821115615a2e57615a2e615512565b01949350505050565b602081018235615a4681614798565b63ffffffff16909152919050565b60006001600160601b0380831681851681830481118215151615615a7a57615a7a615512565b02949350505050565b6000816000190483118215151615615a9d57615a9d615512565b500290565b606081018335615ab181614798565b63ffffffff80821684528085511660208501525050602083015160408301529392505050565b602081526000825160806020840152615af360a08401826148fd565b9050602084015163ffffffff808216604086015260408601519150601f19858403016060860152615b2483836148fd565b925080606087015116608086015250508091505092915050565b600061ffff80831681811415615b5657615b56615512565b600101939250505056fe30644e72e131a029b85045b68181585d97816a916871ca8d3c208c16d87cfd47424c535369676e6174757265436865636b65722e636865636b5369676e617475a2646970667358221220f77d6d2201f5989aaf705a2027106ed3e67d406920b7da79fcfc1440112ec9d864736f6c634300080c0033",
    "linkReferences": {}
  },
  "methodIdentifiers": {
    "TASK_RESPONSE_WINDOW_BLOCK()": "1ad43189",
    "aggregator()": "245a7bfc",
    "allProofs(uint32)": "34884d5e",
    "allTaskHashes(uint32)": "2d89f6fc",
    "allTaskResponses(uint32)": "2cb223d5",
    "blsApkRegistry()": "5df45946",
    "checkSignatures(bytes32,bytes,uint32,(uint32[],(uint256,uint256)[],(uint256,uint256)[],(uint256[2],uint256[2]),(uint256,uint256),uint32[],uint32[],uint32[][]))": "6efb4636",
    "createNewTask(bytes,uint32,bytes)": "b4173bce",
    "delegation()": "df5cf723",
    "generator()": "7afa1eed",
    "getBatchOperatorFromId(address,bytes32[])": "4d2b57fe",
    "getBatchOperatorId(address,address[])": "31b36bd9",
    "getCheckSignaturesIndices(address,uint32,bytes,bytes32[])": "4f739f74",
    "getOperatorState(address,bytes,uint32)": "3563b0d1",
    "getOperatorState(address,bytes32,uint32)": "cefdc1d4",
    "getProof(uint32)": "9f1fa78a",
    "getQuorumBitmapsAtBlockNumber(address,bytes32[],uint32)": "5c155662",
    "getTaskResponseWindowBlock()": "f5c9899d",
    "initialize(address,address,address,address)": "f8c8765e",
    "latestTaskNum()": "8b00ce7c",
    "owner()": "8da5cb5b",
    "pause(uint256)": "136439dd",
    "pauseAll()": "595c6a67",
    "paused()": "5c975abb",
    "paused(uint8)": "5ac86ab7",
    "pauserRegistry()": "886f1195",
    "registryCoordinator()": "6d14a987",
    "renounceOwnership()": "715018a6",
    "respondToTask((bytes,uint32,bytes,uint32),(uint32),(uint32[],(uint256,uint256)[],(uint256,uint256)[],(uint256[2],uint256[2]),(uint256,uint256),uint32[],uint32[],uint32[][]))": "784d283b",
    "setPauserRegistry(address)": "10d67a2f",
    "setStaleStakesForbidden(bool)": "416c7e5e",
    "stakeRegistry()": "68304835",
    "staleStakesForbidden()": "b98d0908",
    "taskSuccesfullyChallenged(uint32)": "5decc3f5",
    "transferOwnership(address)": "f2fde38b",
    "trySignatureAndApkVerification(bytes32,(uint256,uint256),(uint256[2],uint256[2]),(uint256,uint256))": "171f1d5b",
    "unpause(uint256)": "fabc1cbc"
  },
  "id": 114
}